{
  "_format": "hh-sol-artifact-1",
  "contractName": "Escrow",
  "sourceName": "contracts/Escrow.sol",
  "abi": [
    {
      "inputs": [],
      "name": "ReentrancyGuardReentrantCall",
      "type": "error"
    },
    {
      "anonymous": false,
      "inputs": [
        {
          "indexed": true,
          "internalType": "uint256",
          "name": "projectId",
          "type": "uint256"
        }
      ],
      "name": "DisputeRaised",
      "type": "event"
    },
    {
      "anonymous": false,
      "inputs": [
        {
          "indexed": true,
          "internalType": "uint256",
          "name": "projectId",
          "type": "uint256"
        },
        {
          "indexed": true,
          "internalType": "uint256",
          "name": "mid",
          "type": "uint256"
        },
        {
          "indexed": false,
          "internalType": "uint256",
          "name": "amount",
          "type": "uint256"
        }
      ],
      "name": "MilestoneFunded",
      "type": "event"
    },
    {
      "anonymous": false,
      "inputs": [
        {
          "indexed": true,
          "internalType": "uint256",
          "name": "projectId",
          "type": "uint256"
        },
        {
          "indexed": true,
          "internalType": "uint256",
          "name": "mid",
          "type": "uint256"
        },
        {
          "indexed": false,
          "internalType": "address",
          "name": "to",
          "type": "address"
        },
        {
          "indexed": false,
          "internalType": "uint256",
          "name": "amount",
          "type": "uint256"
        }
      ],
      "name": "MilestoneReleased",
      "type": "event"
    },
    {
      "anonymous": false,
      "inputs": [
        {
          "indexed": true,
          "internalType": "uint256",
          "name": "projectId",
          "type": "uint256"
        },
        {
          "indexed": false,
          "internalType": "address",
          "name": "client",
          "type": "address"
        },
        {
          "indexed": false,
          "internalType": "address",
          "name": "freelancer",
          "type": "address"
        }
      ],
      "name": "ProjectCreated",
      "type": "event"
    },
    {
      "inputs": [
        {
          "internalType": "uint256",
          "name": "pid",
          "type": "uint256"
        },
        {
          "internalType": "uint256",
          "name": "mid",
          "type": "uint256"
        }
      ],
      "name": "approveMilestone",
      "outputs": [],
      "stateMutability": "nonpayable",
      "type": "function"
    },
    {
      "inputs": [
        {
          "internalType": "address",
          "name": "freelancer",
          "type": "address"
        },
        {
          "internalType": "uint256[]",
          "name": "amounts",
          "type": "uint256[]"
        }
      ],
      "name": "createProject",
      "outputs": [
        {
          "internalType": "uint256",
          "name": "",
          "type": "uint256"
        }
      ],
      "stateMutability": "nonpayable",
      "type": "function"
    },
    {
      "inputs": [
        {
          "internalType": "uint256",
          "name": "pid",
          "type": "uint256"
        },
        {
          "internalType": "uint256",
          "name": "mid",
          "type": "uint256"
        }
      ],
      "name": "fundMilestone",
      "outputs": [],
      "stateMutability": "payable",
      "type": "function"
    },
    {
      "inputs": [],
      "name": "nextProjectId",
      "outputs": [
        {
          "internalType": "uint256",
          "name": "",
          "type": "uint256"
        }
      ],
      "stateMutability": "view",
      "type": "function"
    },
    {
      "inputs": [
        {
          "internalType": "uint256",
          "name": "",
          "type": "uint256"
        }
      ],
      "name": "projects",
      "outputs": [
        {
          "internalType": "address",
          "name": "client",
          "type": "address"
        },
        {
          "internalType": "address",
          "name": "freelancer",
          "type": "address"
        },
        {
          "internalType": "bool",
          "name": "disputed",
          "type": "bool"
        }
      ],
      "stateMutability": "view",
      "type": "function"
    },
    {
      "inputs": [
        {
          "internalType": "uint256",
          "name": "pid",
          "type": "uint256"
        }
      ],
      "name": "raiseDispute",
      "outputs": [],
      "stateMutability": "nonpayable",
      "type": "function"
    },
    {
      "inputs": [
        {
          "internalType": "uint256",
          "name": "pid",
          "type": "uint256"
        },
        {
          "internalType": "uint256",
          "name": "mid",
          "type": "uint256"
        }
      ],
      "name": "refundMilestone",
      "outputs": [],
      "stateMutability": "nonpayable",
      "type": "function"
    }
  ],
  "bytecode": "0x6080604052348015600f57600080fd5b506001600055610a56806100246000396000f3fe6080604052600436106100705760003560e01c80635afce31e1161004e5780635afce31e14610131578063a5c1674e14610144578063cd27898014610164578063e935b7b11461019257600080fd5b8063107046bd1461007557806320913da5146100ef5780632d8849ee14610111575b600080fd5b34801561008157600080fd5b506100c2610090366004610912565b600160208190526000918252604090912080549101546001600160a01b0391821691811690600160a01b900460ff1683565b604080516001600160a01b0394851681529390921660208401521515908201526060015b60405180910390f35b3480156100fb57600080fd5b5061010f61010a36600461092b565b6101a8565b005b34801561011d57600080fd5b5061010f61012c36600461092b565b6103bd565b61010f61013f36600461092b565b6104fd565b34801561015057600080fd5b5061010f61015f366004610912565b6106fd565b34801561017057600080fd5b5061018461017f36600461094d565b6107ae565b6040519081526020016100e6565b34801561019e57600080fd5b5061018460025481565b6101b06108e8565b600082815260016020526040902080546001600160a01b0316331461020a5760405162461bcd60e51b815260206004820152600b60248201526a1bdb9b1e4818db1a595b9d60aa1b60448201526064015b60405180910390fd5b6001810154600160a01b900460ff16156102595760405162461bcd60e51b815260206004820152601060248201526f1c1c9bda9958dd08191a5cdc1d5d195960821b6044820152606401610201565b6000816002018381548110610270576102706109e3565b906000526020600020906002020190508060010160019054906101000a900460ff166102cb5760405162461bcd60e51b815260206004820152600a6024820152691b9bdd08199d5b99195960b21b6044820152606401610201565b600181015460ff16156103135760405162461bcd60e51b815260206004820152601060248201526f185b1c9958591e481c995b19585cd95960821b6044820152606401610201565b6001818101805460ff19168217905582015481546040516001600160a01b039092169181156108fc0291906000818181858888f1935050505015801561035d573d6000803e3d6000fd5b5060018201548154604080516001600160a01b0390931683526020830191909152849186917fb37915caa4a2c797e4d82b5b0c330c8c0a66fd621adf72cf62562e84bacb7d27910160405180910390a350506103b96001600055565b5050565b6103c56108e8565b600082815260016020819052604090912090810154600160a01b900460ff1661041f5760405162461bcd60e51b815260206004820152600c60248201526b1b9bdd08191a5cdc1d5d195960a21b6044820152606401610201565b6000816002018381548110610436576104366109e3565b906000526020600020906002020190508060010160019054906101000a900460ff1680156104695750600181015460ff16155b6104a65760405162461bcd60e51b815260206004820152600e60248201526d6e6f7420726566756e6461626c6560901b6044820152606401610201565b6001818101805460ff19169091179055815481546040516001600160a01b039092169181156108fc0291906000818181858888f193505050501580156104f0573d6000803e3d6000fd5b5050506103b96001600055565b600082815260016020526040902080546001600160a01b0316331461055b5760405162461bcd60e51b81526020600482015260146024820152731bdb9b1e4818db1a595b9d0818d85b88199d5b9960621b6044820152606401610201565b6001810154600160a01b900460ff16156105aa5760405162461bcd60e51b815260206004820152601060248201526f1c1c9bda9958dd08191a5cdc1d5d195960821b6044820152606401610201565b600281015482106105ed5760405162461bcd60e51b815260206004820152600d60248201526c626164206d696c6573746f6e6560981b6044820152606401610201565b6000816002018381548110610604576106046109e3565b906000526020600020906002020190508060010160019054906101000a900460ff16156106645760405162461bcd60e51b815260206004820152600e60248201526d185b1c9958591e48199d5b99195960921b6044820152606401610201565b805434146106a85760405162461bcd60e51b81526020600482015260116024820152701cd95b9908195e1858dd08185b5bdd5b9d607a1b6044820152606401610201565b60018101805461ff001916610100179055604051839085907f4e84fd279e9b8a989cf81bca6d0a9c62a19954af44c7ee39600aebb2ba4734e5906106ef9034815260200190565b60405180910390a350505050565b600081815260016020526040902080546001600160a01b031633148061072f575060018101546001600160a01b031633145b61076a5760405162461bcd60e51b815260206004820152600c60248201526b6f6e6c79207061727469657360a01b6044820152606401610201565b60018101805460ff60a01b1916600160a01b17905560405182907f04901f83201c8724eadf084436db8aa391820bae6d11f9f78a17edb6f2eef3cf90600090a25050565b60028054600091829190826107c2836109f9565b909155506000818152600160208190526040822080546001600160a01b0319163317815590810180546001600160a81b0319166001600160a01b038a161790559192505b8481101561089b5781600201604051806060016040528088888581811061082f5761082f6109e3565b6020908102929092013583525060008282018190526040928301819052845460018082018755958252908290208451600290920201908155908301519084018054939092015161ffff1990931690151561ff001916176101009215159290920291909117905501610806565b50604080513381526001600160a01b038816602082015283917f89d08535246e9977769e1f3a9c7b5cf99c9ea6c5c7362972d02f1d0598fba5e0910160405180910390a250949350505050565b60026000540361090b57604051633ee5aeb560e01b815260040160405180910390fd5b6002600055565b60006020828403121561092457600080fd5b5035919050565b6000806040838503121561093e57600080fd5b50508035926020909101359150565b60008060006040848603121561096257600080fd5b83356001600160a01b038116811461097957600080fd5b9250602084013567ffffffffffffffff81111561099557600080fd5b8401601f810186136109a657600080fd5b803567ffffffffffffffff8111156109bd57600080fd5b8660208260051b84010111156109d257600080fd5b939660209190910195509293505050565b634e487b7160e01b600052603260045260246000fd5b600060018201610a1957634e487b7160e01b600052601160045260246000fd5b506001019056fea26469706673582212209bc8761c38e2ce24168acffb5e796e17635f164b3ad40485eddbe025c8e2443864736f6c634300081c0033",
  "linkReferences": {},
  "deployedLinkReferences": {}
}