{
  "_format": "hh-sol-artifact-1",
  "contractName": "Escrow",
  "sourceName": "contracts/Escrow.sol",
  "abi": [
    {
      "inputs": [],
      "name": "ReentrancyGuardReentrantCall",
      "type": "error"
    },
    {
      "anonymous": false,
      "inputs": [
        {
          "indexed": true,
          "internalType": "uint256",
          "name": "projectId",
          "type": "uint256"
        }
      ],
      "name": "DisputeRaised",
      "type": "event"
    },
    {
      "anonymous": false,
      "inputs": [
        {
          "indexed": true,
          "internalType": "uint256",
          "name": "projectId",
          "type": "uint256"
        },
        {
          "indexed": true,
          "internalType": "uint256",
          "name": "mid",
          "type": "uint256"
        },
        {
          "indexed": false,
          "internalType": "uint256",
          "name": "amount",
          "type": "uint256"
        }
      ],
      "name": "MilestoneFunded",
      "type": "event"
    },
    {
      "anonymous": false,
      "inputs": [
        {
          "indexed": true,
          "internalType": "uint256",
          "name": "projectId",
          "type": "uint256"
        },
        {
          "indexed": true,
          "internalType": "uint256",
          "name": "mid",
          "type": "uint256"
        },
        {
          "indexed": false,
          "internalType": "address",
          "name": "to",
          "type": "address"
        },
        {
          "indexed": false,
          "internalType": "uint256",
          "name": "amount",
          "type": "uint256"
        }
      ],
      "name": "MilestoneReleased",
      "type": "event"
    },
    {
      "anonymous": false,
      "inputs": [
        {
          "indexed": true,
          "internalType": "uint256",
          "name": "projectId",
          "type": "uint256"
        },
        {
          "indexed": false,
          "internalType": "address",
          "name": "client",
          "type": "address"
        },
        {
          "indexed": false,
          "internalType": "address",
          "name": "freelancer",
          "type": "address"
        }
      ],
      "name": "ProjectCreated",
      "type": "event"
    },
    {
      "inputs": [
        {
          "internalType": "uint256",
          "name": "pid",
          "type": "uint256"
        },
        {
          "internalType": "uint256",
          "name": "mid",
          "type": "uint256"
        }
      ],
      "name": "approveMilestone",
      "outputs": [],
      "stateMutability": "nonpayable",
      "type": "function"
    },
    {
      "inputs": [
        {
          "internalType": "address",
          "name": "freelancer",
          "type": "address"
        },
        {
          "internalType": "uint256[]",
          "name": "amounts",
          "type": "uint256[]"
        }
      ],
      "name": "createProject",
      "outputs": [
        {
          "internalType": "uint256",
          "name": "",
          "type": "uint256"
        }
      ],
      "stateMutability": "nonpayable",
      "type": "function"
    },
    {
      "inputs": [
        {
          "internalType": "uint256",
          "name": "pid",
          "type": "uint256"
        },
        {
          "internalType": "uint256",
          "name": "mid",
          "type": "uint256"
        }
      ],
      "name": "fundMilestone",
      "outputs": [],
      "stateMutability": "payable",
      "type": "function"
    },
    {
      "inputs": [],
      "name": "nextProjectId",
      "outputs": [
        {
          "internalType": "uint256",
          "name": "",
          "type": "uint256"
        }
      ],
      "stateMutability": "view",
      "type": "function"
    },
    {
      "inputs": [
        {
          "internalType": "uint256",
          "name": "",
          "type": "uint256"
        }
      ],
      "name": "projects",
      "outputs": [
        {
          "internalType": "address",
          "name": "client",
          "type": "address"
        },
        {
          "internalType": "address",
          "name": "freelancer",
          "type": "address"
        },
        {
          "internalType": "bool",
          "name": "disputed",
          "type": "bool"
        }
      ],
      "stateMutability": "view",
      "type": "function"
    },
    {
      "inputs": [
        {
          "internalType": "uint256",
          "name": "pid",
          "type": "uint256"
        }
      ],
      "name": "raiseDispute",
      "outputs": [],
      "stateMutability": "nonpayable",
      "type": "function"
    },
    {
      "inputs": [
        {
          "internalType": "uint256",
          "name": "pid",
          "type": "uint256"
        },
        {
          "internalType": "uint256",
          "name": "mid",
          "type": "uint256"
        }
      ],
      "name": "refundMilestone",
      "outputs": [],
      "stateMutability": "nonpayable",
      "type": "function"
    }
  ],
  "bytecode": "0x6080604052348015600f57600080fd5b5060016000819055506114c3806100276000396000f3fe6080604052600436106100705760003560e01c80635afce31e1161004e5780635afce31e14610106578063a5c1674e14610122578063cd2789801461014b578063e935b7b11461018857610070565b8063107046bd1461007557806320913da5146100b45780632d8849ee146100dd575b600080fd5b34801561008157600080fd5b5061009c60048036038101906100979190610cc5565b6101b3565b6040516100ab93929190610d4e565b60405180910390f35b3480156100c057600080fd5b506100db60048036038101906100d69190610d85565b61022a565b005b3480156100e957600080fd5b5061010460048036038101906100ff9190610d85565b6104f5565b005b610120600480360381019061011b9190610d85565b610693565b005b34801561012e57600080fd5b5061014960048036038101906101449190610cc5565b6108f3565b005b34801561015757600080fd5b50610172600480360381019061016d9190610e56565b610a44565b60405161017f9190610ec5565b60405180910390f35b34801561019457600080fd5b5061019d610c2f565b6040516101aa9190610ec5565b60405180910390f35b60016020528060005260406000206000915090508060000160009054906101000a900473ffffffffffffffffffffffffffffffffffffffff16908060010160009054906101000a900473ffffffffffffffffffffffffffffffffffffffff16908060010160149054906101000a900460ff16905083565b610232610c35565b60006001600084815260200190815260200160002090508060000160009054906101000a900473ffffffffffffffffffffffffffffffffffffffff1673ffffffffffffffffffffffffffffffffffffffff163373ffffffffffffffffffffffffffffffffffffffff16146102db576040517f08c379a00000000000000000000000000000000000000000000000000000000081526004016102d290610f3d565b60405180910390fd5b8060010160149054906101000a900460ff161561032d576040517f08c379a000000000000000000000000000000000000000000000000000000000815260040161032490610fa9565b60405180910390fd5b600081600201838154811061034557610344610fc9565b5b906000526020600020906002020190508060010160019054906101000a900460ff166103a6576040517f08c379a000000000000000000000000000000000000000000000000000000000815260040161039d90611044565b60405180910390fd5b8060010160009054906101000a900460ff16156103f8576040517f08c379a00000000000000000000000000000000000000000000000000000000081526004016103ef906110b0565b60405180910390fd5b60018160010160006101000a81548160ff0219169083151502179055508160010160009054906101000a900473ffffffffffffffffffffffffffffffffffffffff1673ffffffffffffffffffffffffffffffffffffffff166108fc82600001549081150290604051600060405180830381858888f19350505050158015610483573d6000803e3d6000fd5b5082847fb37915caa4a2c797e4d82b5b0c330c8c0a66fd621adf72cf62562e84bacb7d278460010160009054906101000a900473ffffffffffffffffffffffffffffffffffffffff1684600001546040516104df9291906110d0565b60405180910390a350506104f1610c7b565b5050565b6104fd610c35565b60006001600084815260200190815260200160002090508060010160149054906101000a900460ff16610565576040517f08c379a000000000000000000000000000000000000000000000000000000000815260040161055c90611145565b60405180910390fd5b600081600201838154811061057d5761057c610fc9565b5b906000526020600020906002020190508060010160019054906101000a900460ff1680156105ba57508060010160009054906101000a900460ff16155b6105f9576040517f08c379a00000000000000000000000000000000000000000000000000000000081526004016105f0906111b1565b60405180910390fd5b60018160010160006101000a81548160ff0219169083151502179055508160000160009054906101000a900473ffffffffffffffffffffffffffffffffffffffff1673ffffffffffffffffffffffffffffffffffffffff166108fc82600001549081150290604051600060405180830381858888f19350505050158015610684573d6000803e3d6000fd5b50505061068f610c7b565b5050565b60006001600084815260200190815260200160002090508060000160009054906101000a900473ffffffffffffffffffffffffffffffffffffffff1673ffffffffffffffffffffffffffffffffffffffff163373ffffffffffffffffffffffffffffffffffffffff161461073c576040517f08c379a00000000000000000000000000000000000000000000000000000000081526004016107339061121d565b60405180910390fd5b8060010160149054906101000a900460ff161561078e576040517f08c379a000000000000000000000000000000000000000000000000000000000815260040161078590610fa9565b60405180910390fd5b806002018054905082106107d7576040517f08c379a00000000000000000000000000000000000000000000000000000000081526004016107ce90611289565b60405180910390fd5b60008160020183815481106107ef576107ee610fc9565b5b906000526020600020906002020190508060010160019054906101000a900460ff1615610851576040517f08c379a0000000000000000000000000000000000000000000000000000000008152600401610848906112f5565b60405180910390fd5b80600001543414610897576040517f08c379a000000000000000000000000000000000000000000000000000000000815260040161088e90611361565b60405180910390fd5b60018160010160016101000a81548160ff02191690831515021790555082847f4e84fd279e9b8a989cf81bca6d0a9c62a19954af44c7ee39600aebb2ba4734e5346040516108e59190610ec5565b60405180910390a350505050565b60006001600083815260200190815260200160002090508060000160009054906101000a900473ffffffffffffffffffffffffffffffffffffffff1673ffffffffffffffffffffffffffffffffffffffff163373ffffffffffffffffffffffffffffffffffffffff1614806109b757508060010160009054906101000a900473ffffffffffffffffffffffffffffffffffffffff1673ffffffffffffffffffffffffffffffffffffffff163373ffffffffffffffffffffffffffffffffffffffff16145b6109f6576040517f08c379a00000000000000000000000000000000000000000000000000000000081526004016109ed906113cd565b60405180910390fd5b60018160010160146101000a81548160ff021916908315150217905550817f04901f83201c8724eadf084436db8aa391820bae6d11f9f78a17edb6f2eef3cf60405160405180910390a25050565b60008060026000815480929190610a5a9061141c565b9190505590506000600160008381526020019081526020016000209050338160000160006101000a81548173ffffffffffffffffffffffffffffffffffffffff021916908373ffffffffffffffffffffffffffffffffffffffff160217905550858160010160006101000a81548173ffffffffffffffffffffffffffffffffffffffff021916908373ffffffffffffffffffffffffffffffffffffffff16021790555060008160010160146101000a81548160ff02191690831515021790555060005b85859050811015610be857816002016040518060600160405280888885818110610b4a57610b49610fc9565b5b9050602002013581526020016000151581526020016000151581525090806001815401808255809150506001900390600052602060002090600202016000909190919091506000820151816000015560208201518160010160006101000a81548160ff02191690831515021790555060408201518160010160016101000a81548160ff02191690831515021790555050508080600101915050610b1d565b50817f89d08535246e9977769e1f3a9c7b5cf99c9ea6c5c7362972d02f1d0598fba5e03388604051610c1b929190611464565b60405180910390a281925050509392505050565b60025481565b600260005403610c71576040517f3ee5aeb500000000000000000000000000000000000000000000000000000000815260040160405180910390fd5b6002600081905550565b6001600081905550565b600080fd5b600080fd5b6000819050919050565b610ca281610c8f565b8114610cad57600080fd5b50565b600081359050610cbf81610c99565b92915050565b600060208284031215610cdb57610cda610c85565b5b6000610ce984828501610cb0565b91505092915050565b600073ffffffffffffffffffffffffffffffffffffffff82169050919050565b6000610d1d82610cf2565b9050919050565b610d2d81610d12565b82525050565b60008115159050919050565b610d4881610d33565b82525050565b6000606082019050610d636000830186610d24565b610d706020830185610d24565b610d7d6040830184610d3f565b949350505050565b60008060408385031215610d9c57610d9b610c85565b5b6000610daa85828601610cb0565b9250506020610dbb85828601610cb0565b9150509250929050565b610dce81610d12565b8114610dd957600080fd5b50565b600081359050610deb81610dc5565b92915050565b600080fd5b600080fd5b600080fd5b60008083601f840112610e1657610e15610df1565b5b8235905067ffffffffffffffff811115610e3357610e32610df6565b5b602083019150836020820283011115610e4f57610e4e610dfb565b5b9250929050565b600080600060408486031215610e6f57610e6e610c85565b5b6000610e7d86828701610ddc565b935050602084013567ffffffffffffffff811115610e9e57610e9d610c8a565b5b610eaa86828701610e00565b92509250509250925092565b610ebf81610c8f565b82525050565b6000602082019050610eda6000830184610eb6565b92915050565b600082825260208201905092915050565b7f6f6e6c7920636c69656e74000000000000000000000000000000000000000000600082015250565b6000610f27600b83610ee0565b9150610f3282610ef1565b602082019050919050565b60006020820190508181036000830152610f5681610f1a565b9050919050565b7f70726f6a65637420646973707574656400000000000000000000000000000000600082015250565b6000610f93601083610ee0565b9150610f9e82610f5d565b602082019050919050565b60006020820190508181036000830152610fc281610f86565b9050919050565b7f4e487b7100000000000000000000000000000000000000000000000000000000600052603260045260246000fd5b7f6e6f742066756e64656400000000000000000000000000000000000000000000600082015250565b600061102e600a83610ee0565b915061103982610ff8565b602082019050919050565b6000602082019050818103600083015261105d81611021565b9050919050565b7f616c72656164792072656c656173656400000000000000000000000000000000600082015250565b600061109a601083610ee0565b91506110a582611064565b602082019050919050565b600060208201905081810360008301526110c98161108d565b9050919050565b60006040820190506110e56000830185610d24565b6110f26020830184610eb6565b9392505050565b7f6e6f742064697370757465640000000000000000000000000000000000000000600082015250565b600061112f600c83610ee0565b915061113a826110f9565b602082019050919050565b6000602082019050818103600083015261115e81611122565b9050919050565b7f6e6f7420726566756e6461626c65000000000000000000000000000000000000600082015250565b600061119b600e83610ee0565b91506111a682611165565b602082019050919050565b600060208201905081810360008301526111ca8161118e565b9050919050565b7f6f6e6c7920636c69656e742063616e2066756e64000000000000000000000000600082015250565b6000611207601483610ee0565b9150611212826111d1565b602082019050919050565b60006020820190508181036000830152611236816111fa565b9050919050565b7f626164206d696c6573746f6e6500000000000000000000000000000000000000600082015250565b6000611273600d83610ee0565b915061127e8261123d565b602082019050919050565b600060208201905081810360008301526112a281611266565b9050919050565b7f616c72656164792066756e646564000000000000000000000000000000000000600082015250565b60006112df600e83610ee0565b91506112ea826112a9565b602082019050919050565b6000602082019050818103600083015261130e816112d2565b9050919050565b7f73656e6420657861637420616d6f756e74000000000000000000000000000000600082015250565b600061134b601183610ee0565b915061135682611315565b602082019050919050565b6000602082019050818103600083015261137a8161133e565b9050919050565b7f6f6e6c7920706172746965730000000000000000000000000000000000000000600082015250565b60006113b7600c83610ee0565b91506113c282611381565b602082019050919050565b600060208201905081810360008301526113e6816113aa565b9050919050565b7f4e487b7100000000000000000000000000000000000000000000000000000000600052601160045260246000fd5b600061142782610c8f565b91507fffffffffffffffffffffffffffffffffffffffffffffffffffffffffffffffff8203611459576114586113ed565b5b600182019050919050565b60006040820190506114796000830185610d24565b6114866020830184610d24565b939250505056fea26469706673582212202c838255c9028df1b8c3c722591eed5c8008fda74af6cfab051a0601c3d755d664736f6c634300081c0033",
  "linkReferences": {},
  "deployedLinkReferences": {}
}