{
  "_format": "hh-sol-artifact-1",
  "contractName": "EscrowWithTokens",
  "sourceName": "contracts/EscrowWithTokens.sol",
  "abi": [
    {
      "inputs": [],
      "name": "ReentrancyGuardReentrantCall",
      "type": "error"
    },
    {
      "inputs": [
        {
          "internalType": "address",
          "name": "token",
          "type": "address"
        }
      ],
      "name": "SafeERC20FailedOperation",
      "type": "error"
    },
    {
      "anonymous": false,
      "inputs": [
        {
          "indexed": true,
          "internalType": "uint256",
          "name": "projectId",
          "type": "uint256"
        }
      ],
      "name": "DisputeRaised",
      "type": "event"
    },
    {
      "anonymous": false,
      "inputs": [
        {
          "indexed": true,
          "internalType": "uint256",
          "name": "projectId",
          "type": "uint256"
        },
        {
          "indexed": true,
          "internalType": "uint256",
          "name": "mid",
          "type": "uint256"
        },
        {
          "indexed": false,
          "internalType": "uint256",
          "name": "amount",
          "type": "uint256"
        },
        {
          "indexed": false,
          "internalType": "address",
          "name": "token",
          "type": "address"
        }
      ],
      "name": "MilestoneFunded",
      "type": "event"
    },
    {
      "anonymous": false,
      "inputs": [
        {
          "indexed": true,
          "internalType": "uint256",
          "name": "projectId",
          "type": "uint256"
        },
        {
          "indexed": true,
          "internalType": "uint256",
          "name": "mid",
          "type": "uint256"
        },
        {
          "indexed": false,
          "internalType": "address",
          "name": "to",
          "type": "address"
        },
        {
          "indexed": false,
          "internalType": "uint256",
          "name": "amount",
          "type": "uint256"
        },
        {
          "indexed": false,
          "internalType": "address",
          "name": "token",
          "type": "address"
        }
      ],
      "name": "MilestoneReleased",
      "type": "event"
    },
    {
      "anonymous": false,
      "inputs": [
        {
          "indexed": true,
          "internalType": "uint256",
          "name": "projectId",
          "type": "uint256"
        },
        {
          "indexed": false,
          "internalType": "address",
          "name": "client",
          "type": "address"
        },
        {
          "indexed": false,
          "internalType": "address",
          "name": "freelancer",
          "type": "address"
        }
      ],
      "name": "ProjectCreated",
      "type": "event"
    },
    {
      "inputs": [
        {
          "internalType": "uint256",
          "name": "pid",
          "type": "uint256"
        },
        {
          "internalType": "uint256",
          "name": "mid",
          "type": "uint256"
        }
      ],
      "name": "approveMilestone",
      "outputs": [],
      "stateMutability": "nonpayable",
      "type": "function"
    },
    {
      "inputs": [
        {
          "internalType": "address",
          "name": "freelancer",
          "type": "address"
        },
        {
          "internalType": "uint256[]",
          "name": "amounts",
          "type": "uint256[]"
        },
        {
          "internalType": "address[]",
          "name": "tokens",
          "type": "address[]"
        }
      ],
      "name": "createProject",
      "outputs": [
        {
          "internalType": "uint256",
          "name": "",
          "type": "uint256"
        }
      ],
      "stateMutability": "nonpayable",
      "type": "function"
    },
    {
      "inputs": [
        {
          "internalType": "uint256",
          "name": "pid",
          "type": "uint256"
        },
        {
          "internalType": "uint256",
          "name": "mid",
          "type": "uint256"
        }
      ],
      "name": "fundMilestone",
      "outputs": [],
      "stateMutability": "payable",
      "type": "function"
    },
    {
      "inputs": [
        {
          "internalType": "uint256",
          "name": "pid",
          "type": "uint256"
        },
        {
          "internalType": "uint256",
          "name": "mid",
          "type": "uint256"
        },
        {
          "internalType": "address",
          "name": "token",
          "type": "address"
        }
      ],
      "name": "fundMilestoneWithToken",
      "outputs": [],
      "stateMutability": "nonpayable",
      "type": "function"
    },
    {
      "inputs": [],
      "name": "nextProjectId",
      "outputs": [
        {
          "internalType": "uint256",
          "name": "",
          "type": "uint256"
        }
      ],
      "stateMutability": "view",
      "type": "function"
    },
    {
      "inputs": [
        {
          "internalType": "uint256",
          "name": "",
          "type": "uint256"
        }
      ],
      "name": "projects",
      "outputs": [
        {
          "internalType": "address",
          "name": "client",
          "type": "address"
        },
        {
          "internalType": "address",
          "name": "freelancer",
          "type": "address"
        },
        {
          "internalType": "bool",
          "name": "disputed",
          "type": "bool"
        }
      ],
      "stateMutability": "view",
      "type": "function"
    },
    {
      "inputs": [
        {
          "internalType": "uint256",
          "name": "pid",
          "type": "uint256"
        }
      ],
      "name": "raiseDispute",
      "outputs": [],
      "stateMutability": "nonpayable",
      "type": "function"
    },
    {
      "inputs": [
        {
          "internalType": "uint256",
          "name": "pid",
          "type": "uint256"
        },
        {
          "internalType": "uint256",
          "name": "mid",
          "type": "uint256"
        }
      ],
      "name": "refundMilestone",
      "outputs": [],
      "stateMutability": "nonpayable",
      "type": "function"
    }
  ],
  "bytecode": "0x6080604052348015600f57600080fd5b506001600055611028806100246000396000f3fe60806040526004361061007b5760003560e01c806355a8b7e81161004e57806355a8b7e81461016a5780635afce31e1461018a578063a5c1674e1461019d578063e935b7b1146101bd57600080fd5b8063107046bd1461008057806320913da5146100fa5780632d8849ee1461011c5780633fd775a31461013c575b600080fd5b34801561008c57600080fd5b506100cd61009b366004610e0b565b600160208190526000918252604090912080549101546001600160a01b0391821691811690600160a01b900460ff1683565b604080516001600160a01b0394851681529390921660208401521515908201526060015b60405180910390f35b34801561010657600080fd5b5061011a610115366004610e24565b6101d3565b005b34801561012857600080fd5b5061011a610137366004610e24565b610475565b34801561014857600080fd5b5061015c610157366004610eae565b6105ea565b6040519081526020016100f1565b34801561017657600080fd5b5061011a610185366004610f34565b6107c1565b61011a610198366004610e24565b6109d1565b3480156101a957600080fd5b5061011a6101b8366004610e0b565b610c1c565b3480156101c957600080fd5b5061015c60025481565b6101db610ccd565b600082815260016020526040902080546001600160a01b031633146102355760405162461bcd60e51b815260206004820152600b60248201526a1bdb9b1e4818db1a595b9d60aa1b60448201526064015b60405180910390fd5b6001810154600160a01b900460ff16156102615760405162461bcd60e51b815260040161022c90610f69565b600081600201838154811061027857610278610f93565b906000526020600020906002020190508060010160019054906101000a900460ff166102d35760405162461bcd60e51b815260206004820152600a6024820152691b9bdd08199d5b99195960b21b604482015260640161022c565b600181015460ff161561031b5760405162461bcd60e51b815260206004820152601060248201526f185b1c9958591e481c995b19585cd95960821b604482015260640161022c565b6001818101805460ff1916909117908190556201000090046001600160a01b03166103d857600182015481546040516001600160a01b039092169181156108fc0291906000818181858888f1935050505015801561037d573d6000803e3d6000fd5b5060018201548154604080516001600160a01b039093168352602083019190915260008282015251849186917fb7b0ed3952691a15a6579461f405a3c9515cc56dbac3ddb9d862dca6162219b79181900360600190a3610465565b60018083015482549183015461040292620100009091046001600160a01b03908116921690610cf7565b600182810154825491830154604080516001600160a01b0393841681526020810194909452620100009091049091168282015251849186917fb7b0ed3952691a15a6579461f405a3c9515cc56dbac3ddb9d862dca6162219b79181900360600190a35b50506104716001600055565b5050565b61047d610ccd565b600082815260016020819052604090912090810154600160a01b900460ff166104d75760405162461bcd60e51b815260206004820152600c60248201526b1b9bdd08191a5cdc1d5d195960a21b604482015260640161022c565b60008160020183815481106104ee576104ee610f93565b906000526020600020906002020190508060010160019054906101000a900460ff1680156105215750600181015460ff16155b61055e5760405162461bcd60e51b815260206004820152600e60248201526d6e6f7420726566756e6461626c6560901b604482015260640161022c565b6001818101805460ff1916909117908190556201000090046001600160a01b03166105c357815481546040516001600160a01b039092169181156108fc0291906000818181858888f193505050501580156105bd573d6000803e3d6000fd5b50610465565b815481546001830154610465926001600160a01b0362010000909204821692911690610cf7565b600083821461062f5760405162461bcd60e51b81526020600482015260116024820152700c2e4e4c2f2e640daeae6e840dac2e8c6d607b1b604482015260640161022c565b600280546000918261064083610fa9565b909155506000818152600160208190526040822080546001600160a01b0319163317815590810180546001600160a81b0319166001600160a01b038c161790559192505b86811015610772578160020160405180608001604052808a8a858181106106ad576106ad610f93565b9050602002013581526020016000151581526020016000151581526020018888858181106106dd576106dd610f93565b90506020020160208101906106f29190610fd0565b6001600160a01b0390811690915282546001808201855560009485526020948590208451600290930201918255938301519084018054604085015160609095015161ffff1990911692151561ff00191692909217610100941515949094029390931762010000600160b01b03191662010000919092160217905501610684565b50604080513381526001600160a01b038a16602082015283917f89d08535246e9977769e1f3a9c7b5cf99c9ea6c5c7362972d02f1d0598fba5e0910160405180910390a2509695505050505050565b600083815260016020526040902080546001600160a01b0316331461081f5760405162461bcd60e51b81526020600482015260146024820152731bdb9b1e4818db1a595b9d0818d85b88199d5b9960621b604482015260640161022c565b6001810154600160a01b900460ff161561084b5760405162461bcd60e51b815260040161022c90610f69565b6002810154831061088e5760405162461bcd60e51b815260206004820152600d60248201526c626164206d696c6573746f6e6560981b604482015260640161022c565b60008160020184815481106108a5576108a5610f93565b906000526020600020906002020190508060010160019054906101000a900460ff16156109055760405162461bcd60e51b815260206004820152600e60248201526d185b1c9958591e48199d5b99195960921b604482015260640161022c565b60018101546001600160a01b038481166201000090920416146109585760405162461bcd60e51b815260206004820152600b60248201526a3bb937b733903a37b5b2b760a91b604482015260640161022c565b8054610972906001600160a01b0385169033903090610d5b565b60018101805461ff0019166101001790558054604080519182526001600160a01b0385166020830152859187917f24566c2962b83466cd845ed509b8957da5c3504b90ffd757db523a778565b74e910160405180910390a35050505050565b600082815260016020526040902080546001600160a01b03163314610a2f5760405162461bcd60e51b81526020600482015260146024820152731bdb9b1e4818db1a595b9d0818d85b88199d5b9960621b604482015260640161022c565b6001810154600160a01b900460ff1615610a5b5760405162461bcd60e51b815260040161022c90610f69565b60028101548210610a9e5760405162461bcd60e51b815260206004820152600d60248201526c626164206d696c6573746f6e6560981b604482015260640161022c565b6000816002018381548110610ab557610ab5610f93565b906000526020600020906002020190508060010160019054906101000a900460ff1615610b155760405162461bcd60e51b815260206004820152600e60248201526d185b1c9958591e48199d5b99195960921b604482015260640161022c565b60018101546201000090046001600160a01b031615610b845760405162461bcd60e51b815260206004820152602560248201527f7573652066756e644d696c6573746f6e6557697468546f6b656e20666f7220746044820152646f6b656e7360d81b606482015260840161022c565b80543414610bc85760405162461bcd60e51b81526020600482015260116024820152701cd95b9908195e1858dd08185b5bdd5b9d607a1b604482015260640161022c565b60018101805461ff0019166101001790556040805134815260006020820152849186917f24566c2962b83466cd845ed509b8957da5c3504b90ffd757db523a778565b74e910160405180910390a350505050565b600081815260016020526040902080546001600160a01b0316331480610c4e575060018101546001600160a01b031633145b610c895760405162461bcd60e51b815260206004820152600c60248201526b6f6e6c79207061727469657360a01b604482015260640161022c565b60018101805460ff60a01b1916600160a01b17905560405182907f04901f83201c8724eadf084436db8aa391820bae6d11f9f78a17edb6f2eef3cf90600090a25050565b600260005403610cf057604051633ee5aeb560e01b815260040160405180910390fd5b6002600055565b6040516001600160a01b03838116602483015260448201839052610d5691859182169063a9059cbb906064015b604051602081830303815290604052915060e01b6020820180516001600160e01b038381831617835250505050610d9a565b505050565b6040516001600160a01b038481166024830152838116604483015260648201839052610d949186918216906323b872dd90608401610d24565b50505050565b600080602060008451602086016000885af180610dbd576040513d6000823e3d81fd5b50506000513d91508115610dd5578060011415610de2565b6001600160a01b0384163b155b15610d9457604051635274afe760e01b81526001600160a01b038516600482015260240161022c565b600060208284031215610e1d57600080fd5b5035919050565b60008060408385031215610e3757600080fd5b50508035926020909101359150565b80356001600160a01b0381168114610e5d57600080fd5b919050565b60008083601f840112610e7457600080fd5b50813567ffffffffffffffff811115610e8c57600080fd5b6020830191508360208260051b8501011115610ea757600080fd5b9250929050565b600080600080600060608688031215610ec657600080fd5b610ecf86610e46565b9450602086013567ffffffffffffffff811115610eeb57600080fd5b610ef788828901610e62565b909550935050604086013567ffffffffffffffff811115610f1757600080fd5b610f2388828901610e62565b969995985093965092949392505050565b600080600060608486031215610f4957600080fd5b8335925060208401359150610f6060408501610e46565b90509250925092565b60208082526010908201526f1c1c9bda9958dd08191a5cdc1d5d195960821b604082015260600190565b634e487b7160e01b600052603260045260246000fd5b600060018201610fc957634e487b7160e01b600052601160045260246000fd5b5060010190565b600060208284031215610fe257600080fd5b610feb82610e46565b939250505056fea2646970667358221220204739f4fbfaa2eb9eb9b6456b0b73be4e526d8ab912ff8e3f864faeb1e5060364736f6c634300081c0033",
  "linkReferences": {},
  "deployedLinkReferences": {}
}